{
  "_format": "hh3-artifact-1",
  "contractName": "ProofOfFun",
  "sourceName": "contracts/ProofOfFun.sol",
  "abi": [
    {
      "inputs": [],
      "stateMutability": "nonpayable",
      "type": "constructor"
    },
    {
      "inputs": [],
      "name": "AlreadyVoted",
      "type": "error"
    },
    {
      "inputs": [],
      "name": "CategoryNotInEvent",
      "type": "error"
    },
    {
      "inputs": [],
      "name": "EnforcedPause",
      "type": "error"
    },
    {
      "inputs": [],
      "name": "EventEnded",
      "type": "error"
    },
    {
      "inputs": [],
      "name": "EventNotActive",
      "type": "error"
    },
    {
      "inputs": [],
      "name": "EventNotStarted",
      "type": "error"
    },
    {
      "inputs": [],
      "name": "ExpectedPause",
      "type": "error"
    },
    {
      "inputs": [],
      "name": "InvalidCategory",
      "type": "error"
    },
    {
      "inputs": [],
      "name": "InvalidEvent",
      "type": "error"
    },
    {
      "inputs": [],
      "name": "InvalidRating",
      "type": "error"
    },
    {
      "inputs": [],
      "name": "NoVotesRecorded",
      "type": "error"
    },
    {
      "inputs": [
        {
          "internalType": "address",
          "name": "owner",
          "type": "address"
        }
      ],
      "name": "OwnableInvalidOwner",
      "type": "error"
    },
    {
      "inputs": [
        {
          "internalType": "address",
          "name": "account",
          "type": "address"
        }
      ],
      "name": "OwnableUnauthorizedAccount",
      "type": "error"
    },
    {
      "inputs": [],
      "name": "ReentrancyGuardReentrantCall",
      "type": "error"
    },
    {
      "inputs": [],
      "name": "Unauthorized",
      "type": "error"
    },
    {
      "anonymous": false,
      "inputs": [
        {
          "indexed": true,
          "internalType": "uint256",
          "name": "categoryId",
          "type": "uint256"
        },
        {
          "indexed": false,
          "internalType": "string",
          "name": "name",
          "type": "string"
        }
      ],
      "name": "CategoryCreated",
      "type": "event"
    },
    {
      "anonymous": false,
      "inputs": [
        {
          "indexed": true,
          "internalType": "uint256",
          "name": "categoryId",
          "type": "uint256"
        },
        {
          "indexed": false,
          "internalType": "bool",
          "name": "isActive",
          "type": "bool"
        }
      ],
      "name": "CategoryStatusChanged",
      "type": "event"
    },
    {
      "anonymous": false,
      "inputs": [
        {
          "indexed": true,
          "internalType": "uint256",
          "name": "categoryId",
          "type": "uint256"
        },
        {
          "indexed": false,
          "internalType": "string",
          "name": "name",
          "type": "string"
        }
      ],
      "name": "CategoryUpdated",
      "type": "event"
    },
    {
      "anonymous": false,
      "inputs": [
        {
          "indexed": true,
          "internalType": "uint256",
          "name": "eventId",
          "type": "uint256"
        },
        {
          "indexed": false,
          "internalType": "string",
          "name": "name",
          "type": "string"
        },
        {
          "indexed": false,
          "internalType": "uint256",
          "name": "startTime",
          "type": "uint256"
        },
        {
          "indexed": false,
          "internalType": "uint256",
          "name": "endTime",
          "type": "uint256"
        }
      ],
      "name": "EventCreated",
      "type": "event"
    },
    {
      "anonymous": false,
      "inputs": [
        {
          "indexed": true,
          "internalType": "uint256",
          "name": "eventId",
          "type": "uint256"
        },
        {
          "indexed": false,
          "internalType": "bool",
          "name": "isActive",
          "type": "bool"
        }
      ],
      "name": "EventStatusChanged",
      "type": "event"
    },
    {
      "anonymous": false,
      "inputs": [
        {
          "indexed": true,
          "internalType": "uint256",
          "name": "eventId",
          "type": "uint256"
        },
        {
          "indexed": false,
          "internalType": "string",
          "name": "name",
          "type": "string"
        },
        {
          "indexed": false,
          "internalType": "uint256",
          "name": "startTime",
          "type": "uint256"
        },
        {
          "indexed": false,
          "internalType": "uint256",
          "name": "endTime",
          "type": "uint256"
        }
      ],
      "name": "EventUpdated",
      "type": "event"
    },
    {
      "anonymous": false,
      "inputs": [
        {
          "indexed": true,
          "internalType": "address",
          "name": "previousOwner",
          "type": "address"
        },
        {
          "indexed": true,
          "internalType": "address",
          "name": "newOwner",
          "type": "address"
        }
      ],
      "name": "OwnershipTransferred",
      "type": "event"
    },
    {
      "anonymous": false,
      "inputs": [
        {
          "indexed": false,
          "internalType": "address",
          "name": "account",
          "type": "address"
        }
      ],
      "name": "Paused",
      "type": "event"
    },
    {
      "anonymous": false,
      "inputs": [
        {
          "indexed": true,
          "internalType": "uint256",
          "name": "eventId",
          "type": "uint256"
        },
        {
          "indexed": false,
          "internalType": "uint256",
          "name": "timestamp",
          "type": "uint256"
        }
      ],
      "name": "ResultsPublished",
      "type": "event"
    },
    {
      "anonymous": false,
      "inputs": [
        {
          "indexed": false,
          "internalType": "address",
          "name": "account",
          "type": "address"
        }
      ],
      "name": "Unpaused",
      "type": "event"
    },
    {
      "anonymous": false,
      "inputs": [
        {
          "indexed": true,
          "internalType": "uint256",
          "name": "eventId",
          "type": "uint256"
        },
        {
          "indexed": true,
          "internalType": "uint256",
          "name": "categoryId",
          "type": "uint256"
        },
        {
          "indexed": false,
          "internalType": "bytes32",
          "name": "voteHash",
          "type": "bytes32"
        },
        {
          "indexed": false,
          "internalType": "uint256",
          "name": "timestamp",
          "type": "uint256"
        }
      ],
      "name": "VoteCast",
      "type": "event"
    },
    {
      "anonymous": false,
      "inputs": [
        {
          "indexed": true,
          "internalType": "uint256",
          "name": "eventId",
          "type": "uint256"
        },
        {
          "indexed": true,
          "internalType": "address",
          "name": "voter",
          "type": "address"
        }
      ],
      "name": "VoteRevoked",
      "type": "event"
    },
    {
      "inputs": [],
      "name": "MAX_RATING",
      "outputs": [
        {
          "internalType": "uint256",
          "name": "",
          "type": "uint256"
        }
      ],
      "stateMutability": "view",
      "type": "function"
    },
    {
      "inputs": [],
      "name": "MIN_RATING",
      "outputs": [
        {
          "internalType": "uint256",
          "name": "",
          "type": "uint256"
        }
      ],
      "stateMutability": "view",
      "type": "function"
    },
    {
      "inputs": [],
      "name": "PRECISION",
      "outputs": [
        {
          "internalType": "uint256",
          "name": "",
          "type": "uint256"
        }
      ],
      "stateMutability": "view",
      "type": "function"
    },
    {
      "inputs": [
        {
          "internalType": "uint256",
          "name": "_eventId",
          "type": "uint256"
        },
        {
          "internalType": "uint256[]",
          "name": "_categoryIds",
          "type": "uint256[]"
        },
        {
          "internalType": "uint8[]",
          "name": "_ratings",
          "type": "uint8[]"
        },
        {
          "internalType": "bytes32",
          "name": "_salt",
          "type": "bytes32"
        }
      ],
      "name": "batchVote",
      "outputs": [],
      "stateMutability": "nonpayable",
      "type": "function"
    },
    {
      "inputs": [
        {
          "internalType": "uint256",
          "name": "_categoryId",
          "type": "uint256"
        }
      ],
      "name": "calculateCategoryAverage",
      "outputs": [
        {
          "internalType": "uint256",
          "name": "",
          "type": "uint256"
        }
      ],
      "stateMutability": "view",
      "type": "function"
    },
    {
      "inputs": [
        {
          "internalType": "uint256",
          "name": "",
          "type": "uint256"
        }
      ],
      "name": "categories",
      "outputs": [
        {
          "internalType": "string",
          "name": "name",
          "type": "string"
        },
        {
          "internalType": "bool",
          "name": "isActive",
          "type": "bool"
        },
        {
          "internalType": "uint256",
          "name": "totalVotes",
          "type": "uint256"
        }
      ],
      "stateMutability": "view",
      "type": "function"
    },
    {
      "inputs": [
        {
          "internalType": "string",
          "name": "_name",
          "type": "string"
        }
      ],
      "name": "createCategory",
      "outputs": [
        {
          "internalType": "uint256",
          "name": "",
          "type": "uint256"
        }
      ],
      "stateMutability": "nonpayable",
      "type": "function"
    },
    {
      "inputs": [
        {
          "internalType": "string",
          "name": "_name",
          "type": "string"
        },
        {
          "internalType": "string",
          "name": "_description",
          "type": "string"
        },
        {
          "internalType": "uint256",
          "name": "_startTime",
          "type": "uint256"
        },
        {
          "internalType": "uint256",
          "name": "_endTime",
          "type": "uint256"
        },
        {
          "internalType": "uint256[]",
          "name": "_categoryIds",
          "type": "uint256[]"
        }
      ],
      "name": "createEvent",
      "outputs": [
        {
          "internalType": "uint256",
          "name": "",
          "type": "uint256"
        }
      ],
      "stateMutability": "nonpayable",
      "type": "function"
    },
    {
      "inputs": [
        {
          "internalType": "uint256",
          "name": "",
          "type": "uint256"
        }
      ],
      "name": "events",
      "outputs": [
        {
          "internalType": "string",
          "name": "name",
          "type": "string"
        },
        {
          "internalType": "string",
          "name": "description",
          "type": "string"
        },
        {
          "internalType": "uint256",
          "name": "startTime",
          "type": "uint256"
        },
        {
          "internalType": "uint256",
          "name": "endTime",
          "type": "uint256"
        },
        {
          "internalType": "bool",
          "name": "isActive",
          "type": "bool"
        },
        {
          "internalType": "uint256",
          "name": "totalParticipants",
          "type": "uint256"
        }
      ],
      "stateMutability": "view",
      "type": "function"
    },
    {
      "inputs": [],
      "name": "getActiveCategories",
      "outputs": [
        {
          "internalType": "uint256[]",
          "name": "",
          "type": "uint256[]"
        }
      ],
      "stateMutability": "view",
      "type": "function"
    },
    {
      "inputs": [],
      "name": "getActiveEvents",
      "outputs": [
        {
          "internalType": "uint256[]",
          "name": "",
          "type": "uint256[]"
        }
      ],
      "stateMutability": "view",
      "type": "function"
    },
    {
      "inputs": [
        {
          "internalType": "uint256",
          "name": "_categoryId",
          "type": "uint256"
        }
      ],
      "name": "getCategory",
      "outputs": [
        {
          "internalType": "string",
          "name": "name",
          "type": "string"
        },
        {
          "internalType": "bool",
          "name": "isActive",
          "type": "bool"
        },
        {
          "internalType": "uint256",
          "name": "totalVotes",
          "type": "uint256"
        }
      ],
      "stateMutability": "view",
      "type": "function"
    },
    {
      "inputs": [],
      "name": "getCategoryCount",
      "outputs": [
        {
          "internalType": "uint256",
          "name": "",
          "type": "uint256"
        }
      ],
      "stateMutability": "view",
      "type": "function"
    },
    {
      "inputs": [
        {
          "internalType": "uint256",
          "name": "_categoryId",
          "type": "uint256"
        }
      ],
      "name": "getCategoryVoteDistribution",
      "outputs": [
        {
          "internalType": "uint256[5]",
          "name": "",
          "type": "uint256[5]"
        }
      ],
      "stateMutability": "view",
      "type": "function"
    },
    {
      "inputs": [
        {
          "internalType": "uint256",
          "name": "_eventId",
          "type": "uint256"
        }
      ],
      "name": "getEvent",
      "outputs": [
        {
          "internalType": "string",
          "name": "name",
          "type": "string"
        },
        {
          "internalType": "string",
          "name": "description",
          "type": "string"
        },
        {
          "internalType": "uint256",
          "name": "startTime",
          "type": "uint256"
        },
        {
          "internalType": "uint256",
          "name": "endTime",
          "type": "uint256"
        },
        {
          "internalType": "bool",
          "name": "isActive",
          "type": "bool"
        },
        {
          "internalType": "uint256",
          "name": "totalParticipants",
          "type": "uint256"
        },
        {
          "internalType": "uint256[]",
          "name": "categoryIds",
          "type": "uint256[]"
        }
      ],
      "stateMutability": "view",
      "type": "function"
    },
    {
      "inputs": [],
      "name": "getEventCount",
      "outputs": [
        {
          "internalType": "uint256",
          "name": "",
          "type": "uint256"
        }
      ],
      "stateMutability": "view",
      "type": "function"
    },
    {
      "inputs": [
        {
          "internalType": "uint256",
          "name": "_eventId",
          "type": "uint256"
        }
      ],
      "name": "getEventResults",
      "outputs": [
        {
          "components": [
            {
              "internalType": "string",
              "name": "name",
              "type": "string"
            },
            {
              "internalType": "uint256",
              "name": "average",
              "type": "uint256"
            },
            {
              "internalType": "uint256",
              "name": "totalVotes",
              "type": "uint256"
            },
            {
              "internalType": "uint256[5]",
              "name": "distribution",
              "type": "uint256[5]"
            }
          ],
          "internalType": "struct ProofOfFun.CategoryResult[]",
          "name": "",
          "type": "tuple[]"
        }
      ],
      "stateMutability": "view",
      "type": "function"
    },
    {
      "inputs": [
        {
          "internalType": "uint256",
          "name": "_eventId",
          "type": "uint256"
        },
        {
          "internalType": "address",
          "name": "_user",
          "type": "address"
        }
      ],
      "name": "hasUserVoted",
      "outputs": [
        {
          "internalType": "bool",
          "name": "",
          "type": "bool"
        }
      ],
      "stateMutability": "view",
      "type": "function"
    },
    {
      "inputs": [
        {
          "internalType": "uint256",
          "name": "_eventId",
          "type": "uint256"
        },
        {
          "internalType": "address",
          "name": "_user",
          "type": "address"
        },
        {
          "internalType": "uint256",
          "name": "_categoryId",
          "type": "uint256"
        }
      ],
      "name": "hasUserVotedCategory",
      "outputs": [
        {
          "internalType": "bool",
          "name": "",
          "type": "bool"
        }
      ],
      "stateMutability": "view",
      "type": "function"
    },
    {
      "inputs": [],
      "name": "nextCategoryId",
      "outputs": [
        {
          "internalType": "uint256",
          "name": "",
          "type": "uint256"
        }
      ],
      "stateMutability": "view",
      "type": "function"
    },
    {
      "inputs": [],
      "name": "nextEventId",
      "outputs": [
        {
          "internalType": "uint256",
          "name": "",
          "type": "uint256"
        }
      ],
      "stateMutability": "view",
      "type": "function"
    },
    {
      "inputs": [],
      "name": "owner",
      "outputs": [
        {
          "internalType": "address",
          "name": "",
          "type": "address"
        }
      ],
      "stateMutability": "view",
      "type": "function"
    },
    {
      "inputs": [],
      "name": "pause",
      "outputs": [],
      "stateMutability": "nonpayable",
      "type": "function"
    },
    {
      "inputs": [],
      "name": "paused",
      "outputs": [
        {
          "internalType": "bool",
          "name": "",
          "type": "bool"
        }
      ],
      "stateMutability": "view",
      "type": "function"
    },
    {
      "inputs": [
        {
          "internalType": "uint256",
          "name": "_eventId",
          "type": "uint256"
        }
      ],
      "name": "publishResults",
      "outputs": [],
      "stateMutability": "nonpayable",
      "type": "function"
    },
    {
      "inputs": [],
      "name": "renounceOwnership",
      "outputs": [],
      "stateMutability": "nonpayable",
      "type": "function"
    },
    {
      "inputs": [
        {
          "internalType": "uint256",
          "name": "_categoryId",
          "type": "uint256"
        }
      ],
      "name": "toggleCategoryStatus",
      "outputs": [],
      "stateMutability": "nonpayable",
      "type": "function"
    },
    {
      "inputs": [
        {
          "internalType": "uint256",
          "name": "_eventId",
          "type": "uint256"
        }
      ],
      "name": "toggleEventStatus",
      "outputs": [],
      "stateMutability": "nonpayable",
      "type": "function"
    },
    {
      "inputs": [
        {
          "internalType": "address",
          "name": "newOwner",
          "type": "address"
        }
      ],
      "name": "transferOwnership",
      "outputs": [],
      "stateMutability": "nonpayable",
      "type": "function"
    },
    {
      "inputs": [],
      "name": "unpause",
      "outputs": [],
      "stateMutability": "nonpayable",
      "type": "function"
    },
    {
      "inputs": [
        {
          "internalType": "uint256",
          "name": "_categoryId",
          "type": "uint256"
        },
        {
          "internalType": "string",
          "name": "_name",
          "type": "string"
        }
      ],
      "name": "updateCategory",
      "outputs": [],
      "stateMutability": "nonpayable",
      "type": "function"
    },
    {
      "inputs": [
        {
          "internalType": "uint256",
          "name": "_eventId",
          "type": "uint256"
        },
        {
          "internalType": "string",
          "name": "_name",
          "type": "string"
        },
        {
          "internalType": "string",
          "name": "_description",
          "type": "string"
        },
        {
          "internalType": "uint256",
          "name": "_startTime",
          "type": "uint256"
        },
        {
          "internalType": "uint256",
          "name": "_endTime",
          "type": "uint256"
        }
      ],
      "name": "updateEvent",
      "outputs": [],
      "stateMutability": "nonpayable",
      "type": "function"
    },
    {
      "inputs": [
        {
          "internalType": "address",
          "name": "",
          "type": "address"
        }
      ],
      "name": "userVoteCount",
      "outputs": [
        {
          "internalType": "uint256",
          "name": "",
          "type": "uint256"
        }
      ],
      "stateMutability": "view",
      "type": "function"
    },
    {
      "inputs": [
        {
          "internalType": "uint256",
          "name": "_eventId",
          "type": "uint256"
        },
        {
          "internalType": "uint256",
          "name": "_categoryId",
          "type": "uint256"
        },
        {
          "internalType": "uint8",
          "name": "_rating",
          "type": "uint8"
        },
        {
          "internalType": "bytes32",
          "name": "_salt",
          "type": "bytes32"
        }
      ],
      "name": "vote",
      "outputs": [],
      "stateMutability": "nonpayable",
      "type": "function"
    },
    {
      "inputs": [
        {
          "internalType": "bytes32",
          "name": "",
          "type": "bytes32"
        }
      ],
      "name": "voteProofs",
      "outputs": [
        {
          "internalType": "bytes32",
          "name": "voteHash",
          "type": "bytes32"
        },
        {
          "internalType": "uint256",
          "name": "timestamp",
          "type": "uint256"
        },
        {
          "internalType": "uint256",
          "name": "eventId",
          "type": "uint256"
        },
        {
          "internalType": "uint256",
          "name": "categoryId",
          "type": "uint256"
        }
      ],
      "stateMutability": "view",
      "type": "function"
    }
  ],
  "bytecode": "0x6080604052346101d05733156101bd575f8054336001600160a01b0319821681178355916001600160a01b03909116907f8be0079c531659141344cd1fd0a4f28419497f9722a3daafe3b4186f6b6457e09080a36001805560408051908101906001600160401b038211818310176101a957610092916040526008815267416d6269656e636560c01b60208201526101f7565b5060408051908101906001600160401b038211818310176101a9576100d291604052600c81526b27b933b0b734bd30ba34b7b760a11b60208201526101f7565b5060408051908101906001600160401b038211818310176101a95761010d91604052600781526610dbdb9d195b9d60ca1b60208201526101f7565b5060408051908101906001600160401b038211818310176101a95761014b91604052600a815269546563686e6f6c6f677960b01b60208201526101f7565b506101726101576101d4565b6c115b9d195c9d185a5b9b595b9d609a1b60208201526101f7565b5061019961017e6101d4565b6c4163636573736962696c69747960981b60208201526101f7565b506040516122f990816103cd8239f35b634e487b7160e01b5f52604160045260245ffd5b631e4fbdf760e01b5f525f60045260245ffd5b5f80fd5b60408051919082016001600160401b038111838210176101a957604052600d8252565b906004545f1981146103b857600181016004555f818152600660205260409020835193906001600160401b0385116101a957805494600186811c961680156103ae575b602087101461039a57601f8611610355575b839495506020601f82116001146102db57925f6002602094846040955f5160206126c65f395f51905f529885916102d0575b508160011b9185199060031b1c19161781555b60018101600160ff198254161790550155815192839181835280519182918282860152018484015e5f828201840152601f01601f19168101030190a290565b90508501515f61027e565b601f19821690835f52805f20915f5b81811061033a57506020946001855f5160206126c65f395f51905f5298955f9560409860029610610322575b5050811b018155610291565b870151861960f88460031b161c191690555f80610316565b828701518455889750600190930192602092830192016102ea565b815f5260205f20601f820160051c81019660208310610390575b601f0160051c01955b868110610385575061024c565b5f8155600101610378565b909650869061036f565b634e487b7160e01b5f52602260045260245ffd5b95607f169561023a565b634e487b7160e01b5f52601160045260245ffdfe60806040526004361015610011575f80fd5b5f3560e01c80630b79143014611d995780630e5a6e8214611d735780631b133fb914611d275780633612280f14611c715780633f4ba83a14611c0b578063404d540e14611b915780634d330b0f14610a4f5780635c975abb14611b6f5780636d1884e014611a78578063713cdaa814611a40578063715018a6146119e957806378697e5b146118355780638456cb59146117dc5780638b71d515146114745780638da5cb5b1461144d5780639095322d1461115857806394e113ea1461113d5780639f9d903a146107d8578063aaf5eb6814611122578063aed13b2814610d32578063afa1e9f214610af5578063b0a3650a14610a87578063bb0e4ea214610a6c578063bc32443814610a4f578063bc6cd97714610995578063bfad9cc0146108f5578063c2e06e0214610839578063c6cdbe5e146107f5578063d9e48f5c146107d8578063dc296ae114610781578063dc29868214610595578063e13102e91461051b578063f2fde38b14610496578063f3052d26146104425763fbb8a35a1461019a575f80fd5b3461043e57608036600319011261043e576004356024359060443560ff81169081810361043e576101c9612288565b6101d16122a8565b60035483101561042f5760045484101561042057600182108015610416575b61040757825f52600560205260405f209160ff600484015416156103f857600283015442106103e957600383015442116103da57845f526006830160205260ff60405f205416156103cb57600883019260018060a01b0333165f528360205260405f20865f5260205260ff60405f2054166103bc577fe79f2326f5235cecec005b291a88eac9e9f418c219be84fe8b9e8ba3547dcc6e936002604094855160208101913360601b83528960348301528a605483015260ff60f81b9060f81b1660748201526064356075820152426095820152609581526102d160b582611e62565b51902093885f526006602052855f20905f5260038101602052855f206102f78154612171565b9055016103048154612171565b9055335f81815260209283528581208982528352858120805460ff1916600117905590815260078301918290528490205490919060ff161561038b575b5050805f526007602052846003835f208381554260018201558660028201550155335f526008602052815f206103778154612171565b90558151908152426020820152a360018055005b335f90815260209290925290839020805460ff1916600117905560090180546103b390612171565b90555f80610341565b637c9a1cf960e01b5f5260045ffd5b6377c706a560e01b5f5260045ffd5b631963c37d60e01b5f5260045ffd5b63fc85733f60e01b5f5260045ffd5b6301e1837960e31b5f5260045ffd5b63d29df2dd60e01b5f5260045ffd5b50600582116101f0565b636b3ac97b60e11b5f5260045ffd5b63afb6a7d160e01b5f5260045ffd5b5f80fd5b3461043e57602036600319011261043e57600435600454811015610420575f52600660205260405f2060ff60018201541690610492610485600283015492611e83565b9160405193849384612096565b0390f35b3461043e57602036600319011261043e576104af611f7a565b6104b7612262565b6001600160a01b03168015610508575f80546001600160a01b03198116831782556001600160a01b0316907f8be0079c531659141344cd1fd0a4f28419497f9722a3daafe3b4186f6b6457e09080a3005b631e4fbdf760e01b5f525f60045260245ffd5b3461043e57602036600319011261043e57600435610537612262565b60035481101561042f575f81815260056020908152604091829020600401805460ff808216151660ff199091168117909155915191151582527f69a1d308f60ea7e097a1ac547a3a0776b9c2e05d34084ce48e044df8f45e7cb291a2005b3461043e57602036600319011261043e576004356001600160401b03811161043e576105c5903690600401611fa6565b6105cd612262565b6004546105d981612171565b600455805f52600660205260405f2082516001600160401b03811161076d576106028254611e2a565b601f8111610728575b5092829160209485601f821160011461069d57600261068793837f11c167cc9b439f0ad8bec5588159f1b06b813bc38d50c867a41b23b077be2c1a96945f948591610692575b508160011b9185199060031b1c19161781555b60018101600160ff19825416179055015560405191829187835287830190611f23565b0390a2604051908152f35b90508501518b610651565b601f19821690835f52805f20915f5b81811061070e5750936001845f946002947f11c167cc9b439f0ad8bec5588159f1b06b813bc38d50c867a41b23b077be2c1a999761068799106106f6575b5050811b018155610664565b870151861960f88460031b161c191690558b806106ea565b8287015184558897506001909301929189019189016106ac565b825f5260205f20601f830160051c81019160208410610763575b601f0160051c01905b818110610758575061060b565b5f815560010161074b565b9091508190610742565b634e487b7160e01b5f52604160045260245ffd5b3461043e57604036600319011261043e5760043561079d611f90565b9060035481101561042f575f526005602052600760405f20019060018060a01b03165f52602052602060ff60405f2054166040519015158152f35b3461043e575f36600319011261043e576020600354604051908152f35b3461043e57602036600319011261043e576004355f52600660205260405f2061081d81611e83565b610492600260ff60018501541693015460405193849384612096565b3461043e575f36600319011261043e576004545f805b8281106108c157506108609061217f565b905f5f5b828110610881576040516020808252819061049290820187611f47565b805f52600660205260ff600160405f200154166108a1575b600101610864565b906108b981836108b3600194886121b1565b52612171565b919050610899565b805f52600660205260ff600160405f200154166108e1575b60010161084f565b906108ed600191612171565b9190506108d9565b3461043e57602036600319011261043e57600435610911612262565b60035481101561042f57805f526005602052600360405f20015442111561095e577f118f959a74f702cdc24614ce54eaada8f5b8e1b01a9bcf1d1b2fe673bedc51476020604051428152a2005b60405162461bcd60e51b815260206004820152600f60248201526e115d995b9d081b9bdd08195b991959608a1b6044820152606490fd5b3461043e57602036600319011261043e5760043560a090816040516109ba8282611e62565b369037600454811015610420575f52600660205260405f206040516109df8382611e62565b8236823760035f9201915b60ff8116906005821015610a3e57600182019060ff8211610a2a5760ff9283600193165f5285602052610a2260405f20549186612251565b5201166109ea565b634e487b7160e01b5f52601160045260245ffd5b8483610a4d604051809261206f565bf35b3461043e575f36600319011261043e576020600454604051908152f35b3461043e575f36600319011261043e57602060405160018152f35b3461043e57606036600319011261043e57600435610aa3611f90565b6044359160035481101561042f57600454831015610420575f526005602052600860405f20019060018060a01b03165f5260205260405f20905f52602052602060ff60405f2054166040519015158152f35b3461043e57602036600319011261043e5760043560035481101561042f575f526005602052600560405f20018054610b2c81611ffb565b91610b3a6040519384611e62565b818352601f19610b4983611ffb565b015f5b818110610cd85750505f905b828210610bf757836040518091602082016020835281518091526040830190602060408260051b8601019301915f905b828210610b9757505050500390f35b919360019193955060208091603f19898203018552610be7885191606080610bca85516101008552610100850190611f23565b94868101518785015260408101516040850152015191019061206f565b9601920192018594939192610b88565b610c0582829593949561223c565b90549060031b1c805f52600660205260405f2090610c2385856121b1565b51610c2d83611e83565b90526002820154806040610c4188886121b1565b510152610c57575b509193926001019150610b58565b610c63909591956120d8565b6020610c6f86866121b1565b510152600360019501945b60ff81169060058211610cca57815f528660205260405f20546060610c9f88886121b1565b510151925f190160ff8111610a2a57610cc59360ff610cbf921690612251565b526120ba565b610c7a565b509094506001905085610c49565b6040949394519060808201918083106001600160401b0384111761076d57602092604052606081525f838201525f604082015260a060405190610d1b8183611e62565b368237606082015282828701015201939293610b4c565b3461043e5760a036600319011261043e576004356001600160401b03811161043e57610d62903690600401611fa6565b6024356001600160401b03811161043e57610d81903690600401611fa6565b906064356044356084356001600160401b03811161043e57610da7903690600401612012565b90610db0612262565b610dbb8382106121d9565b8151156110e45760035490610dcf82612171565b600355815f52600560205260405f209585516001600160401b03811161076d57610df98854611e2a565b601f811161109f575b50806020601f821160011461103c575f91611031575b508160011b915f199060031b1c19161787555b805160018801916001600160401b03821161076d578190610e4c8454611e2a565b601f8111610fe1575b50602090601f8311600114610f7b575f92610f70575b50508160011b915f199060031b1c19161790559392935b80600287015584600387015560048601600160ff198254161790555f60098701555f936006600588019701945b8451811015610f3957610ec281866121b1565b519060045482101561042057815f52600660205260ff600160405f2001541615610420578854916801000000000000000083101561076d57610f0b8360018095018c558b61223c565b81549060031b9083821b915f19901b19161790555f528660205260405f208260ff1982541617905501610eaf565b602084807f42e6867e52299b45991308391cccb9ee79466d194059ff10fc15c2d88f0ea06186866106878d6040519384938461221a565b015190508980610e6b565b5f8581528281209350601f198516905b818110610fc95750908460019594939210610fb1575b505050811b019055939293610e82565b01515f1960f88460031b161c19169055898080610fa1565b92936020600181928786015181550195019301610f8b565b909150835f5260205f20601f840160051c81019160208510611027575b90601f859493920160051c01905b8181106110195750610e55565b5f815584935060010161100c565b9091508190610ffe565b905087015189610e18565b5f8a81528181209250601f198416905b8a828210611087575050908360019493921061106f575b5050811b018755610e2b565b8901515f1960f88460031b161c191690558980611063565b6001849560209395849301518155019401920161104c565b885f5260205f20601f830160051c810191602084106110da575b601f0160051c01905b8181106110cf5750610e02565b5f81556001016110c2565b90915081906110b9565b60405162461bcd60e51b8152602060048201526016602482015275139bc818d85d1959dbdc9a595cc81c1c9bdd9a59195960521b6044820152606490fd5b3461043e575f36600319011261043e57602060405160648152f35b3461043e575f36600319011261043e57602060405160058152f35b3461043e5760a036600319011261043e576004356024356001600160401b03811161043e5761118b903690600401611fa6565b906044356001600160401b03811161043e576111ab903690600401611fa6565b91606435906084356111bb612262565b60035484101561042f576111d08184106121d9565b835f52600560205260405f2082516001600160401b03811161076d576111f68254611e2a565b601f8111611408575b50806020601f82116001146113a7575f9161139c575b508160011b915f199060031b1c19161781555b6001810186516001600160401b03811161076d576112468254611e2a565b601f8111611357575b506020601f82116001146112cb5792849392826003936112bb97957fdec0c072be7f169eb2bb4b8623c860aeea68e353d2d2d4982929b7e3744ba3559b9c5f926112c0575b50508160011b915f1990861b1c19161790555b86600282015501556040519384938461221a565b0390a2005b015190508c80611294565b601f19821698835f52815f20995f5b81811061133f5750837fdec0c072be7f169eb2bb4b8623c860aeea68e353d2d2d4982929b7e3744ba3559a9b8897946112bb99979460039760019510611328575b505050811b0190556112a7565b01515f1983881b60f8161c191690558c808061131b565b838301518c556001909b019a602093840193016112da565b825f5260205f20601f830160051c81019160208410611392575b601f0160051c01905b818110611387575061124f565b5f815560010161137a565b9091508190611371565b905084015188611215565b5f8481528181209250601f198416905b8181106113f0575090836001949392106113d8575b5050811b018155611228565b8601515f1960f88460031b161c1916905588806113cc565b9192602060018192868b0151815501940192016113b7565b825f5260205f20601f830160051c81019160208410611443575b601f0160051c01905b81811061143857506111ff565b5f815560010161142b565b9091508190611422565b3461043e575f36600319011261043e575f546040516001600160a01b039091168152602090f35b3461043e57608036600319011261043e576004356024356001600160401b03811161043e576114a7903690600401612012565b6044356001600160401b03811161043e573660238201121561043e5780600401356114d181611ffb565b916114df6040519384611e62565b8183526024602084019260051b8201019036821161043e57602401915b8183106117c25750505060643592611512612288565b61151a6122a8565b8251825103611785578251156117515760035481101561042f57805f52600560205260405f209260ff600485015416156103f857600284015442106103e957600384015442116103da5733606081901b91600686019060088701905f5b81518110156116e85761158a81836121b1565b5190611596818a6121b1565b519160ff831692600454821015610420576001841080156116de575b61040757815f528660205260ff60405f205416156103cb57875f528560205260405f20825f5260205260ff60405f2054166103bc577fe79f2326f5235cecec005b291a88eac9e9f418c219be84fe8b9e8ba3547dcc6e60406001958f8c8e956002928551916020830193845288603484015289605484015260ff60f81b9060f81b16607483015260758201524260958201528860b582015260b5815261165960d582611e62565b51902091865f52600660205260ff845f2091165f5260038101602052835f206116828154612171565b90550161168f8154612171565b90558a5f5288602052815f20855f52602052815f208760ff19825416179055805f526007602052846003835f20838155428a82015586600282015501558151908152426020820152a301611577565b50600584116115b2565b50838860078101825f528060205260ff60405f20541615611725575b8351335f52600860205261171d60405f209182546120cb565b905560018055005b6009925f5260205260405f20600160ff19825416179055016117478154612171565b9055818080611704565b60405162461bcd60e51b815260206004820152600c60248201526b456d7074792061727261797360a01b6044820152606490fd5b60405162461bcd60e51b8152602060048201526015602482015274082e4e4c2f240d8cadccee8d040dad2e6dac2e8c6d605b1b6044820152606490fd5b823560ff8116810361043e578152602092830192016114fc565b3461043e575f36600319011261043e576117f4612262565b6117fc6122a8565b600160ff1960025416176002557f62e78cea01bee320cd4e420270b5ea74000d11b0c9f74754ebdbfc544b05a2586020604051338152a1005b3461043e57604036600319011261043e576004356024356001600160401b03811161043e57611868903690600401611fa6565b90611871612262565b60045481101561042057805f52600660205260405f20918051926001600160401b03841161076d576118a38154611e2a565b601f81116119a4575b50602093601f811160011461191e5790816112bb93927f5bdd46fc25129a7ae160f84298da28664e8970f8874a02f19537b0313d8f8dc795965f91611913575b508160011b915f199060031b1c19161790555b604051918291602083526020830190611f23565b9050830151876118ec565b601f198116825f52855f20905f5b81811061198c5750916001917f5bdd46fc25129a7ae160f84298da28664e8970f8874a02f19537b0313d8f8dc79697826112bb97969510611974575b5050811b0190556118ff565b8501515f1960f88460031b161c191690558780611968565b8588015183556020978801976001909301920161192c565b815f5260205f20601f860160051c810191602087106119df575b601f0160051c01905b8181106119d457506118ac565b5f81556001016119c7565b90915081906119be565b3461043e575f36600319011261043e57611a01612262565b5f80546001600160a01b0319811682556001600160a01b03167f8be0079c531659141344cd1fd0a4f28419497f9722a3daafe3b4186f6b6457e08280a3005b3461043e57602036600319011261043e576001600160a01b03611a61611f7a565b165f526008602052602060405f2054604051908152f35b3461043e57602036600319011261043e5760043560035481101561042f575f52600560205260405f2060028101549060038101549160ff6004830154169260098301546005840194611ad56001611ace87611e83565b9601611e83565b926040519384602089549182815201985f5260205f20905f5b818110611b595750505090611b3585949392611b136104929897611b279b0387611e62565b604051998a9960e08b5260e08b0190611f23565b9089820360208b0152611f23565b94604088015260608701521515608086015260a085015283820360c0850152611f47565b82548b526020909a019960019283019201611aee565b3461043e575f36600319011261043e57602060ff600254166040519015158152f35b3461043e57602036600319011261043e57600435611bad612262565b600454811015610420575f81815260066020908152604091829020600101805460ff808216151660ff199091168117909155915191151582527f5c8993a56be02577a1c90769c6ccaad938e47fd0f9ceb26a1cefb6767445999291a2005b3461043e575f36600319011261043e57611c23612262565b60025460ff811615611c625760ff19166002557f5db9ee0a495bf2e6ff9c91a7834c1ba4fdd244a5e8aa4e537bd38aeae4b073aa6020604051338152a1005b638dfc202b60e01b5f5260045ffd5b3461043e575f36600319011261043e576003545f805b828110611cf35750611c989061217f565b905f5f5b828110611cb9576040516020808252819061049290820187611f47565b805f52600560205260ff600460405f20015416611cd9575b600101611c9c565b90611ceb81836108b3600194886121b1565b919050611cd1565b805f52600560205260ff600460405f20015416611d13575b600101611c87565b90611d1f600191612171565b919050611d0b565b3461043e57602036600319011261043e576004355f526007602052608060405f208054906001810154906003600282015491015491604051938452602084015260408301526060820152f35b3461043e57602036600319011261043e576020611d916004356120d8565b604051908152f35b3461043e57602036600319011261043e576004355f526005602052611e0160405f20611dc481611e83565b90611dd160018201611e83565b6002820154916003810154611e0f600960ff6004850154169301549360405197889760c0895260c0890190611f23565b908782036020890152611f23565b93604086015260608501521515608084015260a08301520390f35b90600182811c92168015611e58575b6020831014611e4457565b634e487b7160e01b5f52602260045260245ffd5b91607f1691611e39565b90601f801991011681019081106001600160401b0382111761076d57604052565b9060405191825f825492611e9684611e2a565b8084529360018116908115611f015750600114611ebd575b50611ebb92500383611e62565b565b90505f9291925260205f20905f915b818310611ee5575050906020611ebb928201015f611eae565b6020919350806001915483858901015201910190918492611ecc565b905060209250611ebb94915060ff191682840152151560051b8201015f611eae565b805180835260209291819084018484015e5f828201840152601f01601f1916010190565b90602080835192838152019201905f5b818110611f645750505090565b8251845260209384019390920191600101611f57565b600435906001600160a01b038216820361043e57565b602435906001600160a01b038216820361043e57565b81601f8201121561043e578035906001600160401b03821161076d5760405192611fda601f8401601f191660200185611e62565b8284526020838301011161043e57815f926020809301838601378301015290565b6001600160401b03811161076d5760051b60200190565b9080601f8301121561043e57813561202981611ffb565b926120376040519485611e62565b81845260208085019260051b82010192831161043e57602001905b82821061205f5750505090565b8135815260209182019101612052565b905f905b6005821061208057505050565b6020806001928551815201930191019091612073565b6120ae60409295949395606083526060830190611f23565b94151560208201520152565b60ff1660ff8114610a2a5760010190565b91908201809211610a2a57565b600454811015610420575f52600660205260405f20600281015491821561216257906001906003015f5b60ff8316906005821161214457815f528260205260405f2054828102928184041490151715610a2a5761213e91612138916120cb565b926120ba565b91612102565b92505050919091606481029080820460641490151715610a2a570490565b63157d9d5760e11b5f5260045ffd5b5f198114610a2a5760010190565b9061218982611ffb565b6121966040519182611e62565b82815280926121a7601f1991611ffb565b0190602036910137565b80518210156121c55760209160051b010190565b634e487b7160e01b5f52603260045260245ffd5b156121e057565b60405162461bcd60e51b8152602060048201526012602482015271496e76616c69642074696d652072616e676560701b6044820152606490fd5b61223260409295949395606083526060830190611f23565b9460208201520152565b80548210156121c5575f5260205f2001905f90565b9060058110156121c55760051b0190565b5f546001600160a01b0316330361227557565b63118cdaa760e01b5f523360045260245ffd5b600260015414612299576002600155565b633ee5aeb560e01b5f5260045ffd5b60ff600254166122b457565b63d93c066560e01b5f5260045ffdfea26469706673582212206f9bc20752911ad6a463b4c922c4f08a3cd6d9d944f3b16365e0f89dd832c16f64736f6c634300081c003311c167cc9b439f0ad8bec5588159f1b06b813bc38d50c867a41b23b077be2c1a",
  "linkReferences": {},
  "deployedLinkReferences": {},
  "immutableReferences": {},
  "inputSourceName": "project/contracts/ProofOfFun.sol",
  "buildInfoId": "solc-0_8_28-936656c4f0fc6768858bc49a53b567ca620afe3e"
}