{
  "_format": "hh3-artifact-1",
  "contractName": "AnonymousVoteToken",
  "sourceName": "contracts/AnonymousVoteToken.sol",
  "abi": [
    {
      "inputs": [],
      "stateMutability": "nonpayable",
      "type": "constructor"
    },
    {
      "inputs": [],
      "name": "AccessControlBadConfirmation",
      "type": "error"
    },
    {
      "inputs": [
        {
          "internalType": "address",
          "name": "account",
          "type": "address"
        },
        {
          "internalType": "bytes32",
          "name": "neededRole",
          "type": "bytes32"
        }
      ],
      "name": "AccessControlUnauthorizedAccount",
      "type": "error"
    },
    {
      "inputs": [
        {
          "internalType": "address",
          "name": "sender",
          "type": "address"
        },
        {
          "internalType": "uint256",
          "name": "tokenId",
          "type": "uint256"
        },
        {
          "internalType": "address",
          "name": "owner",
          "type": "address"
        }
      ],
      "name": "ERC721IncorrectOwner",
      "type": "error"
    },
    {
      "inputs": [
        {
          "internalType": "address",
          "name": "operator",
          "type": "address"
        },
        {
          "internalType": "uint256",
          "name": "tokenId",
          "type": "uint256"
        }
      ],
      "name": "ERC721InsufficientApproval",
      "type": "error"
    },
    {
      "inputs": [
        {
          "internalType": "address",
          "name": "approver",
          "type": "address"
        }
      ],
      "name": "ERC721InvalidApprover",
      "type": "error"
    },
    {
      "inputs": [
        {
          "internalType": "address",
          "name": "operator",
          "type": "address"
        }
      ],
      "name": "ERC721InvalidOperator",
      "type": "error"
    },
    {
      "inputs": [
        {
          "internalType": "address",
          "name": "owner",
          "type": "address"
        }
      ],
      "name": "ERC721InvalidOwner",
      "type": "error"
    },
    {
      "inputs": [
        {
          "internalType": "address",
          "name": "receiver",
          "type": "address"
        }
      ],
      "name": "ERC721InvalidReceiver",
      "type": "error"
    },
    {
      "inputs": [
        {
          "internalType": "address",
          "name": "sender",
          "type": "address"
        }
      ],
      "name": "ERC721InvalidSender",
      "type": "error"
    },
    {
      "inputs": [
        {
          "internalType": "uint256",
          "name": "tokenId",
          "type": "uint256"
        }
      ],
      "name": "ERC721NonexistentToken",
      "type": "error"
    },
    {
      "anonymous": false,
      "inputs": [
        {
          "indexed": true,
          "internalType": "address",
          "name": "owner",
          "type": "address"
        },
        {
          "indexed": true,
          "internalType": "address",
          "name": "approved",
          "type": "address"
        },
        {
          "indexed": true,
          "internalType": "uint256",
          "name": "tokenId",
          "type": "uint256"
        }
      ],
      "name": "Approval",
      "type": "event"
    },
    {
      "anonymous": false,
      "inputs": [
        {
          "indexed": true,
          "internalType": "address",
          "name": "owner",
          "type": "address"
        },
        {
          "indexed": true,
          "internalType": "address",
          "name": "operator",
          "type": "address"
        },
        {
          "indexed": false,
          "internalType": "bool",
          "name": "approved",
          "type": "bool"
        }
      ],
      "name": "ApprovalForAll",
      "type": "event"
    },
    {
      "anonymous": false,
      "inputs": [
        {
          "indexed": true,
          "internalType": "bytes32",
          "name": "role",
          "type": "bytes32"
        },
        {
          "indexed": true,
          "internalType": "bytes32",
          "name": "previousAdminRole",
          "type": "bytes32"
        },
        {
          "indexed": true,
          "internalType": "bytes32",
          "name": "newAdminRole",
          "type": "bytes32"
        }
      ],
      "name": "RoleAdminChanged",
      "type": "event"
    },
    {
      "anonymous": false,
      "inputs": [
        {
          "indexed": true,
          "internalType": "bytes32",
          "name": "role",
          "type": "bytes32"
        },
        {
          "indexed": true,
          "internalType": "address",
          "name": "account",
          "type": "address"
        },
        {
          "indexed": true,
          "internalType": "address",
          "name": "sender",
          "type": "address"
        }
      ],
      "name": "RoleGranted",
      "type": "event"
    },
    {
      "anonymous": false,
      "inputs": [
        {
          "indexed": true,
          "internalType": "bytes32",
          "name": "role",
          "type": "bytes32"
        },
        {
          "indexed": true,
          "internalType": "address",
          "name": "account",
          "type": "address"
        },
        {
          "indexed": true,
          "internalType": "address",
          "name": "sender",
          "type": "address"
        }
      ],
      "name": "RoleRevoked",
      "type": "event"
    },
    {
      "anonymous": false,
      "inputs": [
        {
          "indexed": true,
          "internalType": "address",
          "name": "from",
          "type": "address"
        },
        {
          "indexed": true,
          "internalType": "address",
          "name": "to",
          "type": "address"
        },
        {
          "indexed": true,
          "internalType": "uint256",
          "name": "tokenId",
          "type": "uint256"
        }
      ],
      "name": "Transfer",
      "type": "event"
    },
    {
      "anonymous": false,
      "inputs": [
        {
          "indexed": true,
          "internalType": "uint256",
          "name": "tokenId",
          "type": "uint256"
        }
      ],
      "name": "VoteTokenBurned",
      "type": "event"
    },
    {
      "anonymous": false,
      "inputs": [
        {
          "indexed": true,
          "internalType": "address",
          "name": "voter",
          "type": "address"
        },
        {
          "indexed": true,
          "internalType": "uint256",
          "name": "tokenId",
          "type": "uint256"
        },
        {
          "indexed": true,
          "internalType": "uint256",
          "name": "eventId",
          "type": "uint256"
        },
        {
          "indexed": false,
          "internalType": "uint256",
          "name": "categoryId",
          "type": "uint256"
        },
        {
          "indexed": false,
          "internalType": "bytes32",
          "name": "voteCommitment",
          "type": "bytes32"
        }
      ],
      "name": "VoteTokenMinted",
      "type": "event"
    },
    {
      "inputs": [],
      "name": "BURNER_ROLE",
      "outputs": [
        {
          "internalType": "bytes32",
          "name": "",
          "type": "bytes32"
        }
      ],
      "stateMutability": "view",
      "type": "function"
    },
    {
      "inputs": [],
      "name": "DEFAULT_ADMIN_ROLE",
      "outputs": [
        {
          "internalType": "bytes32",
          "name": "",
          "type": "bytes32"
        }
      ],
      "stateMutability": "view",
      "type": "function"
    },
    {
      "inputs": [],
      "name": "MINTER_ROLE",
      "outputs": [
        {
          "internalType": "bytes32",
          "name": "",
          "type": "bytes32"
        }
      ],
      "stateMutability": "view",
      "type": "function"
    },
    {
      "inputs": [
        {
          "internalType": "address",
          "name": "to",
          "type": "address"
        },
        {
          "internalType": "uint256",
          "name": "tokenId",
          "type": "uint256"
        }
      ],
      "name": "approve",
      "outputs": [],
      "stateMutability": "nonpayable",
      "type": "function"
    },
    {
      "inputs": [
        {
          "internalType": "address",
          "name": "owner",
          "type": "address"
        }
      ],
      "name": "balanceOf",
      "outputs": [
        {
          "internalType": "uint256",
          "name": "",
          "type": "uint256"
        }
      ],
      "stateMutability": "view",
      "type": "function"
    },
    {
      "inputs": [
        {
          "internalType": "address",
          "name": "_to",
          "type": "address"
        },
        {
          "internalType": "uint256",
          "name": "_eventId",
          "type": "uint256"
        },
        {
          "internalType": "uint256[]",
          "name": "_categoryIds",
          "type": "uint256[]"
        },
        {
          "internalType": "bytes32[]",
          "name": "_voteCommitments",
          "type": "bytes32[]"
        }
      ],
      "name": "batchMintVoteTokens",
      "outputs": [
        {
          "internalType": "uint256[]",
          "name": "",
          "type": "uint256[]"
        }
      ],
      "stateMutability": "nonpayable",
      "type": "function"
    },
    {
      "inputs": [
        {
          "internalType": "uint256",
          "name": "_tokenId",
          "type": "uint256"
        }
      ],
      "name": "burnVoteToken",
      "outputs": [],
      "stateMutability": "nonpayable",
      "type": "function"
    },
    {
      "inputs": [
        {
          "internalType": "uint256",
          "name": "",
          "type": "uint256"
        },
        {
          "internalType": "uint256",
          "name": "",
          "type": "uint256"
        },
        {
          "internalType": "uint256",
          "name": "",
          "type": "uint256"
        }
      ],
      "name": "eventCategoryTokens",
      "outputs": [
        {
          "internalType": "uint256",
          "name": "",
          "type": "uint256"
        }
      ],
      "stateMutability": "view",
      "type": "function"
    },
    {
      "inputs": [
        {
          "internalType": "uint256",
          "name": "tokenId",
          "type": "uint256"
        }
      ],
      "name": "getApproved",
      "outputs": [
        {
          "internalType": "address",
          "name": "",
          "type": "address"
        }
      ],
      "stateMutability": "view",
      "type": "function"
    },
    {
      "inputs": [
        {
          "internalType": "uint256",
          "name": "_eventId",
          "type": "uint256"
        },
        {
          "internalType": "uint256",
          "name": "_categoryId",
          "type": "uint256"
        }
      ],
      "name": "getEventCategoryTokens",
      "outputs": [
        {
          "internalType": "uint256[]",
          "name": "",
          "type": "uint256[]"
        }
      ],
      "stateMutability": "view",
      "type": "function"
    },
    {
      "inputs": [
        {
          "internalType": "bytes32",
          "name": "role",
          "type": "bytes32"
        }
      ],
      "name": "getRoleAdmin",
      "outputs": [
        {
          "internalType": "bytes32",
          "name": "",
          "type": "bytes32"
        }
      ],
      "stateMutability": "view",
      "type": "function"
    },
    {
      "inputs": [
        {
          "internalType": "uint256",
          "name": "_tokenId",
          "type": "uint256"
        }
      ],
      "name": "getTokenMetadata",
      "outputs": [
        {
          "components": [
            {
              "internalType": "uint256",
              "name": "eventId",
              "type": "uint256"
            },
            {
              "internalType": "uint256",
              "name": "categoryId",
              "type": "uint256"
            },
            {
              "internalType": "uint256",
              "name": "timestamp",
              "type": "uint256"
            },
            {
              "internalType": "bytes32",
              "name": "voteCommitment",
              "type": "bytes32"
            },
            {
              "internalType": "bool",
              "name": "isRevealed",
              "type": "bool"
            }
          ],
          "internalType": "struct AnonymousVoteToken.VoteMetadata",
          "name": "",
          "type": "tuple"
        }
      ],
      "stateMutability": "view",
      "type": "function"
    },
    {
      "inputs": [
        {
          "internalType": "address",
          "name": "_user",
          "type": "address"
        }
      ],
      "name": "getUserTokens",
      "outputs": [
        {
          "internalType": "uint256[]",
          "name": "",
          "type": "uint256[]"
        }
      ],
      "stateMutability": "view",
      "type": "function"
    },
    {
      "inputs": [
        {
          "internalType": "address",
          "name": "_account",
          "type": "address"
        }
      ],
      "name": "grantMinterRole",
      "outputs": [],
      "stateMutability": "nonpayable",
      "type": "function"
    },
    {
      "inputs": [
        {
          "internalType": "bytes32",
          "name": "role",
          "type": "bytes32"
        },
        {
          "internalType": "address",
          "name": "account",
          "type": "address"
        }
      ],
      "name": "grantRole",
      "outputs": [],
      "stateMutability": "nonpayable",
      "type": "function"
    },
    {
      "inputs": [
        {
          "internalType": "bytes32",
          "name": "role",
          "type": "bytes32"
        },
        {
          "internalType": "address",
          "name": "account",
          "type": "address"
        }
      ],
      "name": "hasRole",
      "outputs": [
        {
          "internalType": "bool",
          "name": "",
          "type": "bool"
        }
      ],
      "stateMutability": "view",
      "type": "function"
    },
    {
      "inputs": [
        {
          "internalType": "address",
          "name": "owner",
          "type": "address"
        },
        {
          "internalType": "address",
          "name": "operator",
          "type": "address"
        }
      ],
      "name": "isApprovedForAll",
      "outputs": [
        {
          "internalType": "bool",
          "name": "",
          "type": "bool"
        }
      ],
      "stateMutability": "view",
      "type": "function"
    },
    {
      "inputs": [
        {
          "internalType": "address",
          "name": "_to",
          "type": "address"
        },
        {
          "internalType": "uint256",
          "name": "_eventId",
          "type": "uint256"
        },
        {
          "internalType": "uint256",
          "name": "_categoryId",
          "type": "uint256"
        },
        {
          "internalType": "bytes32",
          "name": "_voteCommitment",
          "type": "bytes32"
        }
      ],
      "name": "mintVoteToken",
      "outputs": [
        {
          "internalType": "uint256",
          "name": "",
          "type": "uint256"
        }
      ],
      "stateMutability": "nonpayable",
      "type": "function"
    },
    {
      "inputs": [],
      "name": "name",
      "outputs": [
        {
          "internalType": "string",
          "name": "",
          "type": "string"
        }
      ],
      "stateMutability": "view",
      "type": "function"
    },
    {
      "inputs": [
        {
          "internalType": "uint256",
          "name": "tokenId",
          "type": "uint256"
        }
      ],
      "name": "ownerOf",
      "outputs": [
        {
          "internalType": "address",
          "name": "",
          "type": "address"
        }
      ],
      "stateMutability": "view",
      "type": "function"
    },
    {
      "inputs": [
        {
          "internalType": "bytes32",
          "name": "role",
          "type": "bytes32"
        },
        {
          "internalType": "address",
          "name": "callerConfirmation",
          "type": "address"
        }
      ],
      "name": "renounceRole",
      "outputs": [],
      "stateMutability": "nonpayable",
      "type": "function"
    },
    {
      "inputs": [
        {
          "internalType": "address",
          "name": "_account",
          "type": "address"
        }
      ],
      "name": "revokeMinterRole",
      "outputs": [],
      "stateMutability": "nonpayable",
      "type": "function"
    },
    {
      "inputs": [
        {
          "internalType": "bytes32",
          "name": "role",
          "type": "bytes32"
        },
        {
          "internalType": "address",
          "name": "account",
          "type": "address"
        }
      ],
      "name": "revokeRole",
      "outputs": [],
      "stateMutability": "nonpayable",
      "type": "function"
    },
    {
      "inputs": [
        {
          "internalType": "address",
          "name": "from",
          "type": "address"
        },
        {
          "internalType": "address",
          "name": "to",
          "type": "address"
        },
        {
          "internalType": "uint256",
          "name": "tokenId",
          "type": "uint256"
        }
      ],
      "name": "safeTransferFrom",
      "outputs": [],
      "stateMutability": "nonpayable",
      "type": "function"
    },
    {
      "inputs": [
        {
          "internalType": "address",
          "name": "from",
          "type": "address"
        },
        {
          "internalType": "address",
          "name": "to",
          "type": "address"
        },
        {
          "internalType": "uint256",
          "name": "tokenId",
          "type": "uint256"
        },
        {
          "internalType": "bytes",
          "name": "data",
          "type": "bytes"
        }
      ],
      "name": "safeTransferFrom",
      "outputs": [],
      "stateMutability": "nonpayable",
      "type": "function"
    },
    {
      "inputs": [
        {
          "internalType": "address",
          "name": "operator",
          "type": "address"
        },
        {
          "internalType": "bool",
          "name": "approved",
          "type": "bool"
        }
      ],
      "name": "setApprovalForAll",
      "outputs": [],
      "stateMutability": "nonpayable",
      "type": "function"
    },
    {
      "inputs": [
        {
          "internalType": "bytes4",
          "name": "interfaceId",
          "type": "bytes4"
        }
      ],
      "name": "supportsInterface",
      "outputs": [
        {
          "internalType": "bool",
          "name": "",
          "type": "bool"
        }
      ],
      "stateMutability": "view",
      "type": "function"
    },
    {
      "inputs": [],
      "name": "symbol",
      "outputs": [
        {
          "internalType": "string",
          "name": "",
          "type": "string"
        }
      ],
      "stateMutability": "view",
      "type": "function"
    },
    {
      "inputs": [
        {
          "internalType": "uint256",
          "name": "",
          "type": "uint256"
        }
      ],
      "name": "tokenMetadata",
      "outputs": [
        {
          "internalType": "uint256",
          "name": "eventId",
          "type": "uint256"
        },
        {
          "internalType": "uint256",
          "name": "categoryId",
          "type": "uint256"
        },
        {
          "internalType": "uint256",
          "name": "timestamp",
          "type": "uint256"
        },
        {
          "internalType": "bytes32",
          "name": "voteCommitment",
          "type": "bytes32"
        },
        {
          "internalType": "bool",
          "name": "isRevealed",
          "type": "bool"
        }
      ],
      "stateMutability": "view",
      "type": "function"
    },
    {
      "inputs": [
        {
          "internalType": "uint256",
          "name": "tokenId",
          "type": "uint256"
        }
      ],
      "name": "tokenURI",
      "outputs": [
        {
          "internalType": "string",
          "name": "",
          "type": "string"
        }
      ],
      "stateMutability": "view",
      "type": "function"
    },
    {
      "inputs": [],
      "name": "totalSupply",
      "outputs": [
        {
          "internalType": "uint256",
          "name": "",
          "type": "uint256"
        }
      ],
      "stateMutability": "view",
      "type": "function"
    },
    {
      "inputs": [
        {
          "internalType": "address",
          "name": "from",
          "type": "address"
        },
        {
          "internalType": "address",
          "name": "to",
          "type": "address"
        },
        {
          "internalType": "uint256",
          "name": "tokenId",
          "type": "uint256"
        }
      ],
      "name": "transferFrom",
      "outputs": [],
      "stateMutability": "nonpayable",
      "type": "function"
    },
    {
      "inputs": [
        {
          "internalType": "address",
          "name": "",
          "type": "address"
        },
        {
          "internalType": "uint256",
          "name": "",
          "type": "uint256"
        }
      ],
      "name": "userTokens",
      "outputs": [
        {
          "internalType": "uint256",
          "name": "",
          "type": "uint256"
        }
      ],
      "stateMutability": "view",
      "type": "function"
    }
  ],
  "bytecode": "0x60806040523461034357604080519081016001600160401b03811182821017610259576040908152601782527f50726f6f66206f662046756e20566f746520546f6b656e000000000000000000602083015280519081016001600160401b03811182821017610259576040526007815266504f46564f544560c81b602082015281516001600160401b038111610259575f54600181811c91168015610339575b602082101461023b57601f81116102d7575b50602092601f821160011461027857928192935f9261026d575b50508160011b915f199060031b1c1916175f555b80516001600160401b03811161025957600154600181811c9116801561024f575b602082101461023b57601f81116101d8575b50602091601f8211600114610178579181925f9261016d575b50508160011b915f199060031b1c1916176001555b61014933610347565b50610153336103bd565b5061015d33610450565b50604051611d8890816104e48239f35b015190505f8061012b565b601f1982169260015f52805f20915f5b8581106101c0575083600195106101a8575b505050811b01600155610140565b01515f1960f88460031b161c191690555f808061019a565b91926020600181928685015181550194019201610188565b60015f527fb10e2d527612073b26eecdfd717e6a320cf44b4afac2b0732d9fcbe2b7fa0cf6601f830160051c81019160208410610231575b601f0160051c01905b8181106102265750610112565b5f8155600101610219565b9091508190610210565b634e487b7160e01b5f52602260045260245ffd5b90607f1690610100565b634e487b7160e01b5f52604160045260245ffd5b015190505f806100cb565b601f198216935f8052805f20915f5b8681106102bf57508360019596106102a7575b505050811b015f556100df565b01515f1960f88460031b161c191690555f808061029a565b91926020600181928685015181550194019201610287565b5f80527f290decd9548b62a8d60345a988386fc84ba6bc95484008f6362f93160ef3e563601f830160051c8101916020841061032f575b601f0160051c01905b81811061032457506100b1565b5f8155600101610317565b909150819061030e565b90607f169061009f565b5f80fd5b6001600160a01b0381165f9081525f5160206122cc5f395f51905f52602052604090205460ff166103b8576001600160a01b03165f8181525f5160206122cc5f395f51905f5260205260408120805460ff191660011790553391905f51602061226c5f395f51905f528180a4600190565b505f90565b6001600160a01b0381165f9081525f5160206122ac5f395f51905f52602052604090205460ff166103b8576001600160a01b03165f8181525f5160206122ac5f395f51905f5260205260408120805460ff191660011790553391907f9f2df0fed2c77648de5860a4cc508cd0818c85b8b8a1ab4ceeef8d981c8956a6905f51602061226c5f395f51905f529080a4600190565b6001600160a01b0381165f9081525f51602061228c5f395f51905f52602052604090205460ff166103b8576001600160a01b03165f8181525f51602061228c5f395f51905f5260205260408120805460ff191660011790553391907f3c11d16cbaffd01df69ce1c404f6340ee057498f5f00246190ea54220576a848905f51602061226c5f395f51905f529080a460019056fe6080806040526004361015610012575f80fd5b5f905f3560e01c90816301ffc9a7146112365750806306fdde031461117e578063081812fc14611142578063095ea7b31461105857806318160ddd1461103b57806323b872dd14611024578063248a9ca314610ff1578063282c51f314610fb75780632f2ff15d14610f7957806336568abe14610f355780633dd1eb6114610ecc57806342842e0e14610e9d578063519dc8d214610e2b5780636031680114610d705780636352211e14610d405780636914db6014610ce557806369e2f0fb14610c7c57806370a0823114610c2b57806391d1485414610be257806395d89b4114610ada578063a217fddf14610ac0578063a22cb46514610a1c578063a7a9d10314610901578063ab2ff49e1461074d578063b88d4fde146106b7578063c87b56dd1461065e578063d178e70a14610618578063d5391393146105f0578063d547741f146105a8578063e749f6021461052c578063e985e9c5146104d4578063ec6c201d146101e25763f9f411d814610189575f80fd5b346101df5760403660031901126101df576101a26112df565b6001600160a01b03168152600960205260408120805460243592908310156101df5760206101d084846113ec565b90549060031b1c604051908152f35b80fd5b50346101df5760803660031901126101df576101fc6112df565b9060443560243567ffffffffffffffff82116104d057366023830112156104d05781600401359161022c83611415565b9261023a60405194856113ae565b8084526024602085019160051b830101913683116104cc57602401905b8282106104bc575050506064359367ffffffffffffffff85116104b857366023860112156104b85784600401359461028e86611415565b9561029c60405197886113ae565b8087526024602088019160051b830101913683116104b457602401905b8282106104a4575050506102cb6116c8565b825185510361046757825192946102e184611415565b936102ef60405195866113ae565b8085526102fe601f1991611415565b013660208601376001600160a01b03821690855b875181101561045557600754610327816115e8565b6007556103348186611984565b61033e828a611643565b516103498385611643565b5190604051916103588361137e565b88835260208301918252604083014281526060840191825260808401928c8452858d52600860205260408d209451855551600185015551600284015551600383015551151590600401906103b7919060ff801983541691151516179055565b83885260096020528060408920906103ce9161160a565b858852600a602052604088206103e4838b611643565b5189526020528060408920906103f99161160a565b858185610406858d611643565b516104118688611643565b51604051918252602082015260407f53e48539b7ed4aac4dc3f4ba7af0d66602c1c82a667f04fb70750eeade0f9e0c91a461044c8288611643565b52600101610312565b604051806104638882611345565b0390f35b60405162461bcd60e51b8152602060048201526015602482015274082e4e4c2f240d8cadccee8d040dad2e6dac2e8c6d605b1b6044820152606490fd5b81358152602091820191016102b9565b8680fd5b8380fd5b8135815260209182019101610257565b8580fd5b8280fd5b50346101df5760403660031901126101df5760406104f06112df565b916104f96112f5565b9260018060a01b031681526005602052209060018060a01b03165f52602052602060ff60405f2054166040519015158152f35b50346101df5760403660031901126101df576004358152600a60205260408120602435825260205260408120604051918260208354918281520192825260208220915b8181106105925761046385610586818703826113ae565b60405191829182611345565b825484526020909301926001928301920161056f565b50346101df5760403660031901126101df576105ec6004356105c86112f5565b906105e76105e2825f526006602052600160405f20015490565b611711565b611900565b5080f35b50346101df57806003193601126101df5760206040515f516020611d335f395f51905f528152f35b50346101df5760603660031901126101df57604435906004358152600a602052604081206024358252602052604081209081548310156101df5760206101d084846113ec565b346106b35760203660031901126106b35761067a600435611657565b505f60405161068a6020826113ae565b5261046360405161069c6020826113ae565b5f81526040519182916020835260208301906112bb565b5f80fd5b346106b35760803660031901126106b3576106d06112df565b6106d86112f5565b906044356064359267ffffffffffffffff84116106b357366023850112156106b357836004013592610709846113d0565b9361071760405195866113ae565b80855236602482880101116106b3576020815f92602461074b9901838901378601015261074583838361142d565b33611bee565b005b346106b35760203660031901126106b357335f9081527f42d20fd6db25ea5a8e33f43724ad72f2ebd9488257fa78c86176b8175fc383fa60205260409020546004359060ff16156108ca575f818152600260205260409020546001600160a01b0316610886575f818152600260205260409020546001600160a01b03168015908115610853575b5f83815260026020526040812080546001600160a01b03191690558390827fddf252ad1be2c89b69c2b068fc378daa952ba7f163c4a11628f55a4df523b3ef8280a450610841577f1647765984d6ecdb732e5dbd4cb532e7bced0f3cd1eaee019e91fd34de96d5ca5f80a2005b637e27328960e01b5f5260045260245ffd5b5f83815260046020526040902080546001600160a01b0319169055805f52600360205260405f205f1981540190556107d4565b606460405162461bcd60e51b815260206004820152602060248201527f566f746520746f6b656e7320617265206e6f6e2d7472616e7366657261626c656044820152fd5b63e2517d3f60e01b5f52336004527f3c11d16cbaffd01df69ce1c404f6340ee057498f5f00246190ea54220576a84860245260445ffd5b346106b35760803660031901126106b357602061091c6112df565b6024356044359160643561092e6116c8565b7f53e48539b7ed4aac4dc3f4ba7af0d66602c1c82a667f04fb70750eeade0f9e0c6040600754958694610960866115e8565b60075561096d8682611984565b6109d3835161097b8161137e565b88815260048b820185815286830142815260608401908a825260808501925f84528c5f528f60089052895f209551865551600186015551600285015551600384015551151591019060ff801983541691151516179055565b60018060a01b031693845f52600989526109ef86845f2061160a565b865f52600a8952825f20825f528952610a0a86845f2061160a565b825191825288820152a4604051908152f35b346106b35760403660031901126106b357610a356112df565b60243590811515908183036106b3576001600160a01b0316918215610aad57610a7f90335f52600560205260405f20845f5260205260405f209060ff801983541691151516179055565b6040519081527f17307eab39ab6107e8899845ad3d59bd9653f200f220920489ca2b5937696c3160203392a3005b82630b61174360e31b5f5260045260245ffd5b346106b3575f3660031901126106b35760206040515f8152f35b346106b3575f3660031901126106b3576040515f6001548060011c90600181168015610bd8575b602083108114610bc457828552908115610ba05750600114610b42575b61046383610b2e818503826113ae565b6040519182916020835260208301906112bb565b91905060015f527fb10e2d527612073b26eecdfd717e6a320cf44b4afac2b0732d9fcbe2b7fa0cf6915f905b808210610b8657509091508101602001610b2e610b1e565b919260018160209254838588010152019101909291610b6e565b60ff191660208086019190915291151560051b84019091019150610b2e9050610b1e565b634e487b7160e01b5f52602260045260245ffd5b91607f1691610b01565b346106b35760403660031901126106b357610bfb6112f5565b6004355f52600660205260405f209060018060a01b03165f52602052602060ff60405f2054166040519015158152f35b346106b35760203660031901126106b3576001600160a01b03610c4c6112df565b168015610c69575f526003602052602060405f2054604051908152f35b6322718ad960e21b5f525f60045260245ffd5b346106b35760203660031901126106b35761074b610c986112df565b610ca0611679565b5f516020611d335f395f51905f525f5260066020527f3195c024b2ddd6d9b8f6c836aa52f67fe69376c8903d009b80229b3ce4425f5254610ce090611711565b61186f565b346106b35760203660031901126106b3576004355f52600860205260a060405f20805490600181015490600281015460ff60046003840154930154169260405194855260208501526040840152606083015215156080820152f35b346106b35760203660031901126106b3576020610d5e600435611657565b6040516001600160a01b039091168152f35b346106b35760203660031901126106b3576004355f6080604051610d938161137e565b8281528260208201528260408201528260608201520152610db381611657565b505f52600860205260a060405f20604051610dcd8161137e565b81549182825260018101546020830190815260028201549060408401918252608060ff600460038601549560608801968752015416940193151584526040519485525160208501525160408401525160608301525115156080820152f35b346106b35760203660031901126106b3576001600160a01b03610e4c6112df565b165f52600960205260405f206040519081602082549182815201915f5260205f20905f5b818110610e875761046385610586818703826113ae565b8254845260209093019260019283019201610e70565b346106b35761074b610eae3661130b565b9060405192610ebe6020856113ae565b5f845261074583838361142d565b346106b35760203660031901126106b35761074b610ee86112df565b610ef0611679565b5f516020611d335f395f51905f525f5260066020527f3195c024b2ddd6d9b8f6c836aa52f67fe69376c8903d009b80229b3ce4425f5254610f3090611711565b61174b565b346106b35760403660031901126106b357610f4e6112f5565b336001600160a01b03821603610f6a5761074b90600435611900565b63334bd91960e11b5f5260045ffd5b346106b35760403660031901126106b35761074b600435610f986112f5565b90610fb26105e2825f526006602052600160405f20015490565b6117e3565b346106b3575f3660031901126106b35760206040517f3c11d16cbaffd01df69ce1c404f6340ee057498f5f00246190ea54220576a8488152f35b346106b35760203660031901126106b357602061101c6004355f526006602052600160405f20015490565b604051908152f35b346106b35761074b6110353661130b565b9161142d565b346106b3575f3660031901126106b3576020600754604051908152f35b346106b35760403660031901126106b3576110716112df565b60243561107d81611657565b3315158061112f575b80611102575b6110ef5781906001600160a01b0384811691167f8c5be1e5ebec7d5bd14f71427d1e84f3dd0314c0f7b2291e5b200ac8c7c3b9255f80a45f90815260046020526040902080546001600160a01b0319166001600160a01b03909216919091179055005b63a9fbf51f60e01b5f523360045260245ffd5b506001600160a01b0381165f90815260056020908152604080832033845290915290205460ff161561108c565b506001600160a01b038116331415611086565b346106b35760203660031901126106b35760043561115f81611657565b505f526004602052602060018060a01b0360405f205416604051908152f35b346106b3575f3660031901126106b3576040515f5f548060011c9060018116801561122c575b602083108114610bc457828552908115610ba057506001146111d05761046383610b2e818503826113ae565b5f8080527f290decd9548b62a8d60345a988386fc84ba6bc95484008f6362f93160ef3e563939250905b80821061121257509091508101602001610b2e610b1e565b9192600181602092548385880101520191019092916111fa565b91607f16916111a4565b346106b35760203660031901126106b3576004359063ffffffff60e01b82168092036106b357602091637965db0b60e01b8114908115611278575b5015158152f35b6380ac58cd60e01b8114915081156112aa575b8115611299575b5083611271565b6301ffc9a760e01b14905083611292565b635b5e139f60e01b8114915061128b565b805180835260209291819084018484015e5f828201840152601f01601f1916010190565b600435906001600160a01b03821682036106b357565b602435906001600160a01b03821682036106b357565b60609060031901126106b3576004356001600160a01b03811681036106b357906024356001600160a01b03811681036106b3579060443590565b60206040818301928281528451809452019201905f5b8181106113685750505090565b825184526020938401939092019160010161135b565b60a0810190811067ffffffffffffffff82111761139a57604052565b634e487b7160e01b5f52604160045260245ffd5b90601f8019910116810190811067ffffffffffffffff82111761139a57604052565b67ffffffffffffffff811161139a57601f01601f191660200190565b8054821015611401575f5260205f2001905f90565b634e487b7160e01b5f52603260045260245ffd5b67ffffffffffffffff811161139a5760051b60200190565b6001600160a01b03909116919082156115d5575f828152600260205260409020546001600160a01b0316610886575f828152600260205260409020546001600160a01b031692829033151580611540575b508461150d575b805f52600360205260405f2060018154019055815f52600260205260405f20816bffffffffffffffffffffffff60a01b825416179055847fddf252ad1be2c89b69c2b068fc378daa952ba7f163c4a11628f55a4df523b3ef5f80a46001600160a01b03168083036114f557505050565b6364283d7b60e01b5f5260045260245260445260645ffd5b5f82815260046020526040902080546001600160a01b0319169055845f52600360205260405f205f198154019055611485565b90915080611584575b156115565782905f61147e565b828461156e57637e27328960e01b5f5260045260245ffd5b63177e802f60e01b5f523360045260245260445ffd5b5033841480156115b3575b8061154957505f838152600460205260409020546001600160a01b03163314611549565b505f84815260056020908152604080832033845290915290205460ff1661158f565b633250574960e11b5f525f60045260245ffd5b5f1981146115f65760010190565b634e487b7160e01b5f52601160045260245ffd5b80546801000000000000000081101561139a5761162c916001820181556113ec565b819291549060031b91821b915f19901b1916179055565b80518210156114015760209160051b010190565b5f818152600260205260409020546001600160a01b0316908115610841575090565b335f9081527f54cdd369e4e8a8515e52ca72ec816c2101831ad1f18bf44102ed171459c9b4f8602052604090205460ff16156116b157565b63e2517d3f60e01b5f52336004525f60245260445ffd5b335f9081525f516020611d135f395f51905f52602052604090205460ff16156116ed57565b63e2517d3f60e01b5f52336004525f516020611d335f395f51905f5260245260445ffd5b5f81815260066020908152604080832033845290915290205460ff16156117355750565b63e2517d3f60e01b5f523360045260245260445ffd5b6001600160a01b0381165f9081525f516020611d135f395f51905f52602052604090205460ff166117de576001600160a01b03165f8181525f516020611d135f395f51905f5260205260408120805460ff191660011790553391905f516020611d335f395f51905f52907f2f8788117e7eff1d82e926ec794901d17c78024a50270940304540a733656f0d9080a4600190565b505f90565b5f8181526006602090815260408083206001600160a01b038616845290915290205460ff16611869575f8181526006602090815260408083206001600160a01b0395909516808452949091528120805460ff19166001179055339291907f2f8788117e7eff1d82e926ec794901d17c78024a50270940304540a733656f0d9080a4600190565b50505f90565b6001600160a01b0381165f9081525f516020611d135f395f51905f52602052604090205460ff16156117de576001600160a01b03165f8181525f516020611d135f395f51905f5260205260408120805460ff191690553391905f516020611d335f395f51905f52907ff6391f5c32d9c69d2a47ea670b442974b53935d1edc7fd64eb21e047a839171b9080a4600190565b5f8181526006602090815260408083206001600160a01b038616845290915290205460ff1615611869575f8181526006602090815260408083206001600160a01b0395909516808452949091528120805460ff19169055339291907ff6391f5c32d9c69d2a47ea670b442974b53935d1edc7fd64eb21e047a839171b9080a4600190565b906020906040519061199683836113ae565b5f82526001600160a01b0384169384156115d5575f8281526002855260409020546001600160a01b0316611bab575f8281526002855260409020546001600160a01b03168015159081611b7a575b865f526003865260405f2060018154019055835f526002865260405f20876bffffffffffffffffffffffff60a01b8254161790558387827fddf252ad1be2c89b69c2b068fc378daa952ba7f163c4a11628f55a4df523b3ef5f80a450611b67573b611a50575b50505050565b91611a8d91819495936040519384928392630a85bd0160e11b84523360048501525f602485015260448401526080606484015260848301906112bb565b03815f885af15f9181611b27575b50611af05750503d15611ae8573d90611ab3826113d0565b91611ac160405193846113ae565b82523d5f8284013e5b81519182611ae55783633250574960e11b5f5260045260245ffd5b01fd5b606090611aca565b909291506001600160e01b03191663757a42ff60e11b01611b1557505f808080611a4a565b633250574960e11b5f5260045260245ffd5b9091508381813d8311611b60575b611b3f81836113ae565b810103126106b357516001600160e01b0319811681036106b357905f611a9b565b503d611b35565b6339e3563760e11b5f525f60045260245ffd5b5f8481526004602052604080822080546001600160a01b031916905582825260038852902080545f190190556119e4565b6064846040519062461bcd60e51b825280600483015260248201527f566f746520746f6b656e7320617265206e6f6e2d7472616e7366657261626c656044820152fd5b823b611bfc575b5050505050565b604051630a85bd0160e11b81526001600160a01b039182166004820152918116602483015260448201939093526080606482015291169160209082908190611c489060848301906112bb565b03815f865af15f9181611ccd575b50611cab57503d15611ca4573d611c6c816113d0565b90611c7a60405192836113ae565b81523d5f602083013e5b80519081611c9f5782633250574960e11b5f5260045260245ffd5b602001fd5b6060611c84565b6001600160e01b03191663757a42ff60e11b01611b1557505f80808080611bf5565b9091506020813d602011611d0a575b81611ce9602093836113ae565b810103126106b357516001600160e01b0319811681036106b357905f611c56565b3d9150611cdc56fe3195c024b2ddd6d9b8f6c836aa52f67fe69376c8903d009b80229b3ce4425f519f2df0fed2c77648de5860a4cc508cd0818c85b8b8a1ab4ceeef8d981c8956a6a26469706673582212203cc2da05edc3e33215bfeb7194b17cf3c9773e04c331d086413a4c07a33c993464736f6c634300081c00332f8788117e7eff1d82e926ec794901d17c78024a50270940304540a733656f0d42d20fd6db25ea5a8e33f43724ad72f2ebd9488257fa78c86176b8175fc383fa3195c024b2ddd6d9b8f6c836aa52f67fe69376c8903d009b80229b3ce4425f5154cdd369e4e8a8515e52ca72ec816c2101831ad1f18bf44102ed171459c9b4f8",
  "linkReferences": {},
  "deployedLinkReferences": {},
  "immutableReferences": {},
  "inputSourceName": "project/contracts/AnonymousVoteToken.sol",
  "buildInfoId": "solc-0_8_28-4d7ba7b4d1bf77645b4c19f76a0f23ca7019ea2a"
}